:100000000C9434000C943E000C943E000C943E0082
:100010000C943E000C943E000C943E000C943E0068
:100020000C943E000C943E000C943E000C943E0058
:100030000C943E000C943E000C943E000C943E0048
:100040000C943E000C943E000C943E000C943E0038
:100050000C943E000C943E000C943E000C943E0028
:100060000C943E000C943E0011241FBECFEFD8E04C
:10007000DEBFCDBF0E9440000C945D000C940000D8
:1000800080E284B983EE8AB98CE18BB951E049B141
:1000900029B189B182958170982F952735B123FBBD
:1000A000222720F942FB882780F98223892B829519
:0E00B000880F807E832B85B9EACFF894FFCFAE
:00000001FF
