:100000000C9434000C943E000C943E000C943E0082
:100010000C943E000C943E000C943E000C943E0068
:100020000C943E000C943E000C943E000C943E0058
:100030000C943E000C943E000C943E000C943E0048
:100040000C943E000C943E000C943E000C943E0038
:100050000C943E000C943E000C943E000C943E0028
:100060000C943E000C943E0011241FBECFEFD8E04C
:10007000DEBFCDBF0E9440000C945C000C940000D9
:1000800080E284B983EE8AB98CE18BB941E089B111
:1000900029B199B135B182FB882780F923FB22274A
:1000A00020F98223929591709427892B8295880F4D
:0C00B000807E832B85B9EBCFF894FFCF46
:00000001FF
